{
  "contractName": "funds",
  "abi": [
    {
      "inputs": [
        {
          "internalType": "address",
          "name": "sender",
          "type": "address"
        },
        {
          "internalType": "address",
          "name": "receiver",
          "type": "address"
        },
        {
          "internalType": "uint256",
          "name": "amount",
          "type": "uint256"
        }
      ],
      "name": "createfund",
      "outputs": [],
      "stateMutability": "nonpayable",
      "type": "function"
    },
    {
      "inputs": [],
      "name": "viewfunds",
      "outputs": [
        {
          "internalType": "address[]",
          "name": "",
          "type": "address[]"
        },
        {
          "internalType": "address[]",
          "name": "",
          "type": "address[]"
        },
        {
          "internalType": "uint256[]",
          "name": "",
          "type": "uint256[]"
        }
      ],
      "stateMutability": "view",
      "type": "function",
      "constant": true
    }
  ],
  "bytecode": "0x608060405234801561001057600080fd5b506105cd806100206000396000f3fe608060405234801561001057600080fd5b50600436106100365760003560e01c8063060ab31a1461003b57806358a7819914610057575b600080fd5b6100556004803603810190610050919061037c565b610077565b005b61005f61016b565b60405161006e9392919061054b565b60405180910390f35b6000839080600181540180825580915050600190039060005260206000200160009091909190916101000a81548173ffffffffffffffffffffffffffffffffffffffff021916908373ffffffffffffffffffffffffffffffffffffffff1602179055506001829080600181540180825580915050600190039060005260206000200160009091909190916101000a81548173ffffffffffffffffffffffffffffffffffffffff021916908373ffffffffffffffffffffffffffffffffffffffff1602179055506002819080600181540180825580915050600190039060005260206000200160009091909190915055505050565b6060806060600060016002828054806020026020016040519081016040528092919081815260200182805480156101f757602002820191906000526020600020905b8160009054906101000a900473ffffffffffffffffffffffffffffffffffffffff1673ffffffffffffffffffffffffffffffffffffffff16815260200190600101908083116101ad575b505050505092508180548060200260200160405190810160405280929190818152602001828054801561027f57602002820191906000526020600020905b8160009054906101000a900473ffffffffffffffffffffffffffffffffffffffff1673ffffffffffffffffffffffffffffffffffffffff1681526020019060010190808311610235575b50505050509150808054806020026020016040519081016040528092919081815260200182805480156102d157602002820191906000526020600020905b8154815260200190600101908083116102bd575b50505050509050925092509250909192565b600080fd5b600073ffffffffffffffffffffffffffffffffffffffff82169050919050565b6000610313826102e8565b9050919050565b61032381610308565b811461032e57600080fd5b50565b6000813590506103408161031a565b92915050565b6000819050919050565b61035981610346565b811461036457600080fd5b50565b60008135905061037681610350565b92915050565b600080600060608486031215610395576103946102e3565b5b60006103a386828701610331565b93505060206103b486828701610331565b92505060406103c586828701610367565b9150509250925092565b600081519050919050565b600082825260208201905092915050565b6000819050602082019050919050565b61040481610308565b82525050565b600061041683836103fb565b60208301905092915050565b6000602082019050919050565b600061043a826103cf565b61044481856103da565b935061044f836103eb565b8060005b83811015610480578151610467888261040a565b975061047283610422565b925050600181019050610453565b5085935050505092915050565b600081519050919050565b600082825260208201905092915050565b6000819050602082019050919050565b6104c281610346565b82525050565b60006104d483836104b9565b60208301905092915050565b6000602082019050919050565b60006104f88261048d565b6105028185610498565b935061050d836104a9565b8060005b8381101561053e57815161052588826104c8565b9750610530836104e0565b925050600181019050610511565b5085935050505092915050565b60006060820190508181036000830152610565818661042f565b90508181036020830152610579818561042f565b9050818103604083015261058d81846104ed565b905094935050505056fea26469706673582212207f12ad6fc5fa068fb228e7147f61739f0066ac3b521d8b494b3db69c56ec6d7e64736f6c63430008110033",
  "immutableReferences": {},
  "source": "// SPDX-License-Identifier: MIT\npragma solidity >=0.4.22 <0.9.0;\n\ncontract funds {\n\n  address[] _senders;\n  address[] _receivers;\n  uint[] _amounts;\n\n  function createfund(address sender,address receiver,uint amount) public{\n\n    _senders.push(sender);\n    _receivers.push(receiver);\n    _amounts.push(amount);\n\n  }\n\n  function viewfunds() public view returns(address[] memory,address[] memory,uint[] memory){\n\n    return(_senders,_receivers,_amounts);\n\n  }\n}\n",
  "sourcePath": "/Users/ms/Desktop/Government-Fund-Allocation-and-Tracking-System/contracts/funds.sol",
  "compiler": {
    "name": "solc",
    "version": "0.8.17+commit.8df45f5f.Emscripten.clang"
  },
  "schemaVersion": "3.4.8",
  "updatedAt": "2023-01-25T08:14:21.386Z",
  "networkType": "ethereum",
  "devdoc": {
    "kind": "dev",
    "methods": {},
    "version": 1
  },
  "userdoc": {
    "kind": "user",
    "methods": {},
    "version": 1
  }
}