{
  "contractName": "register",
  "abi": [
    {
      "inputs": [
        {
          "internalType": "address",
          "name": "username",
          "type": "address"
        },
        {
          "internalType": "string",
          "name": "email",
          "type": "string"
        },
        {
          "internalType": "string",
          "name": "name",
          "type": "string"
        },
        {
          "internalType": "string",
          "name": "mobile",
          "type": "string"
        },
        {
          "internalType": "string",
          "name": "dept",
          "type": "string"
        },
        {
          "internalType": "uint256",
          "name": "role",
          "type": "uint256"
        },
        {
          "internalType": "uint256",
          "name": "password",
          "type": "uint256"
        }
      ],
      "name": "registeruser",
      "outputs": [],
      "stateMutability": "nonpayable",
      "type": "function"
    },
    {
      "inputs": [],
      "name": "viewusers",
      "outputs": [
        {
          "internalType": "address[]",
          "name": "",
          "type": "address[]"
        },
        {
          "internalType": "string[]",
          "name": "",
          "type": "string[]"
        },
        {
          "internalType": "string[]",
          "name": "",
          "type": "string[]"
        },
        {
          "internalType": "string[]",
          "name": "",
          "type": "string[]"
        },
        {
          "internalType": "string[]",
          "name": "",
          "type": "string[]"
        },
        {
          "internalType": "uint256[]",
          "name": "",
          "type": "uint256[]"
        },
        {
          "internalType": "uint256[]",
          "name": "",
          "type": "uint256[]"
        }
      ],
      "stateMutability": "view",
      "type": "function",
      "constant": true
    },
    {
      "inputs": [
        {
          "internalType": "address",
          "name": "username",
          "type": "address"
        },
        {
          "internalType": "uint256",
          "name": "password",
          "type": "uint256"
        }
      ],
      "name": "loginuser",
      "outputs": [
        {
          "internalType": "bool",
          "name": "",
          "type": "bool"
        }
      ],
      "stateMutability": "view",
      "type": "function",
      "constant": true
    }
  ],
  "bytecode": "0x608060405234801561001057600080fd5b5061135f806100206000396000f3fe608060405234801561001057600080fd5b50600436106100415760003560e01c8063483e41c114610046578063a46dec8b14610062578063ced460bd14610086575b600080fd5b610060600480360381019061005b9190610ac0565b6100b6565b005b61006a6102f7565b60405161007d9796959493929190610e8f565b60405180910390f35b6100a0600480360381019061009b9190610f2f565b61079f565b6040516100ad9190610f8a565b60405180910390f35b600760008873ffffffffffffffffffffffffffffffffffffffff1673ffffffffffffffffffffffffffffffffffffffff16815260200190815260200160002060009054906101000a900460ff161561010d57600080fd5b6001600760008973ffffffffffffffffffffffffffffffffffffffff1673ffffffffffffffffffffffffffffffffffffffff16815260200190815260200160002060006101000a81548160ff0219169083151502179055506000879080600181540180825580915050600190039060005260206000200160009091909190916101000a81548173ffffffffffffffffffffffffffffffffffffffff021916908373ffffffffffffffffffffffffffffffffffffffff1602179055506001869080600181540180825580915050600190039060005260206000200160009091909190915090816101fc91906111b1565b5060028590806001815401808255809150506001900390600052602060002001600090919091909150908161023191906111b1565b5060038490806001815401808255809150506001900390600052602060002001600090919091909150908161026691906111b1565b5060048390806001815401808255809150506001900390600052602060002001600090919091909150908161029b91906111b1565b506005829080600181540180825580915050600190039060005260206000200160009091909190915055600681908060018154018082558091505060019003906000526020600020016000909190919091505550505050505050565b606080606080606080606060006001600260036004600560068680548060200260200160405190810160405280929190818152602001828054801561039157602002820191906000526020600020905b8160009054906101000a900473ffffffffffffffffffffffffffffffffffffffff1673ffffffffffffffffffffffffffffffffffffffff1681526020019060010190808311610347575b5050505050965085805480602002602001604051908101604052809291908181526020016000905b828210156104655783829060005260206000200180546103d890610fd4565b80601f016020809104026020016040519081016040528092919081815260200182805461040490610fd4565b80156104515780601f1061042657610100808354040283529160200191610451565b820191906000526020600020905b81548152906001019060200180831161043457829003601f168201915b5050505050815260200190600101906103b9565b50505050955084805480602002602001604051908101604052809291908181526020016000905b828210156105385783829060005260206000200180546104ab90610fd4565b80601f01602080910402602001604051908101604052809291908181526020018280546104d790610fd4565b80156105245780601f106104f957610100808354040283529160200191610524565b820191906000526020600020905b81548152906001019060200180831161050757829003601f168201915b50505050508152602001906001019061048c565b50505050945083805480602002602001604051908101604052809291908181526020016000905b8282101561060b57838290600052602060002001805461057e90610fd4565b80601f01602080910402602001604051908101604052809291908181526020018280546105aa90610fd4565b80156105f75780601f106105cc576101008083540402835291602001916105f7565b820191906000526020600020905b8154815290600101906020018083116105da57829003601f168201915b50505050508152602001906001019061055f565b50505050935082805480602002602001604051908101604052809291908181526020016000905b828210156106de57838290600052602060002001805461065190610fd4565b80601f016020809104026020016040519081016040528092919081815260200182805461067d90610fd4565b80156106ca5780601f1061069f576101008083540402835291602001916106ca565b820191906000526020600020905b8154815290600101906020018083116106ad57829003601f168201915b505050505081526020019060010190610632565b5050505092508180548060200260200160405190810160405280929190818152602001828054801561072f57602002820191906000526020600020905b81548152602001906001019080831161071b575b505050505091508080548060200260200160405190810160405280929190818152602001828054801561078157602002820191906000526020600020905b81548152602001906001019080831161076d575b50505050509050965096509650965096509650965090919293949596565b60008060009050600760008573ffffffffffffffffffffffffffffffffffffffff1673ffffffffffffffffffffffffffffffffffffffff16815260200190815260200160002060009054906101000a900460ff166107fc57600080fd5b600090505b6000805490508110156108c6578373ffffffffffffffffffffffffffffffffffffffff166000828154811061083957610838611283565b5b9060005260206000200160009054906101000a900473ffffffffffffffffffffffffffffffffffffffff1673ffffffffffffffffffffffffffffffffffffffff161480156108a45750826006828154811061089757610896611283565b5b9060005260206000200154145b156108b35760019150506108cc565b80806108be906112e1565b915050610801565b60009150505b92915050565b6000604051905090565b600080fd5b600080fd5b600073ffffffffffffffffffffffffffffffffffffffff82169050919050565b6000610911826108e6565b9050919050565b61092181610906565b811461092c57600080fd5b50565b60008135905061093e81610918565b92915050565b600080fd5b600080fd5b6000601f19601f8301169050919050565b7f4e487b7100000000000000000000000000000000000000000000000000000000600052604160045260246000fd5b6109978261094e565b810181811067ffffffffffffffff821117156109b6576109b561095f565b5b80604052505050565b60006109c96108d2565b90506109d5828261098e565b919050565b600067ffffffffffffffff8211156109f5576109f461095f565b5b6109fe8261094e565b9050602081019050919050565b82818337600083830152505050565b6000610a2d610a28846109da565b6109bf565b905082815260208101848484011115610a4957610a48610949565b5b610a54848285610a0b565b509392505050565b600082601f830112610a7157610a70610944565b5b8135610a81848260208601610a1a565b91505092915050565b6000819050919050565b610a9d81610a8a565b8114610aa857600080fd5b50565b600081359050610aba81610a94565b92915050565b600080600080600080600060e0888a031215610adf57610ade6108dc565b5b6000610aed8a828b0161092f565b975050602088013567ffffffffffffffff811115610b0e57610b0d6108e1565b5b610b1a8a828b01610a5c565b965050604088013567ffffffffffffffff811115610b3b57610b3a6108e1565b5b610b478a828b01610a5c565b955050606088013567ffffffffffffffff811115610b6857610b676108e1565b5b610b748a828b01610a5c565b945050608088013567ffffffffffffffff811115610b9557610b946108e1565b5b610ba18a828b01610a5c565b93505060a0610bb28a828b01610aab565b92505060c0610bc38a828b01610aab565b91505092959891949750929550565b600081519050919050565b600082825260208201905092915050565b6000819050602082019050919050565b610c0781610906565b82525050565b6000610c198383610bfe565b60208301905092915050565b6000602082019050919050565b6000610c3d82610bd2565b610c478185610bdd565b9350610c5283610bee565b8060005b83811015610c83578151610c6a8882610c0d565b9750610c7583610c25565b925050600181019050610c56565b5085935050505092915050565b600081519050919050565b600082825260208201905092915050565b6000819050602082019050919050565b600081519050919050565b600082825260208201905092915050565b60005b83811015610cf6578082015181840152602081019050610cdb565b60008484015250505050565b6000610d0d82610cbc565b610d178185610cc7565b9350610d27818560208601610cd8565b610d308161094e565b840191505092915050565b6000610d478383610d02565b905092915050565b6000602082019050919050565b6000610d6782610c90565b610d718185610c9b565b935083602082028501610d8385610cac565b8060005b85811015610dbf5784840389528151610da08582610d3b565b9450610dab83610d4f565b925060208a01995050600181019050610d87565b50829750879550505050505092915050565b600081519050919050565b600082825260208201905092915050565b6000819050602082019050919050565b610e0681610a8a565b82525050565b6000610e188383610dfd565b60208301905092915050565b6000602082019050919050565b6000610e3c82610dd1565b610e468185610ddc565b9350610e5183610ded565b8060005b83811015610e82578151610e698882610e0c565b9750610e7483610e24565b925050600181019050610e55565b5085935050505092915050565b600060e0820190508181036000830152610ea9818a610c32565b90508181036020830152610ebd8189610d5c565b90508181036040830152610ed18188610d5c565b90508181036060830152610ee58187610d5c565b90508181036080830152610ef98186610d5c565b905081810360a0830152610f0d8185610e31565b905081810360c0830152610f218184610e31565b905098975050505050505050565b60008060408385031215610f4657610f456108dc565b5b6000610f548582860161092f565b9250506020610f6585828601610aab565b9150509250929050565b60008115159050919050565b610f8481610f6f565b82525050565b6000602082019050610f9f6000830184610f7b565b92915050565b7f4e487b7100000000000000000000000000000000000000000000000000000000600052602260045260246000fd5b60006002820490506001821680610fec57607f821691505b602082108103610fff57610ffe610fa5565b5b50919050565b60008190508160005260206000209050919050565b60006020601f8301049050919050565b600082821b905092915050565b6000600883026110677fffffffffffffffffffffffffffffffffffffffffffffffffffffffffffffffff8261102a565b611071868361102a565b95508019841693508086168417925050509392505050565b6000819050919050565b60006110ae6110a96110a484610a8a565b611089565b610a8a565b9050919050565b6000819050919050565b6110c883611093565b6110dc6110d4826110b5565b848454611037565b825550505050565b600090565b6110f16110e4565b6110fc8184846110bf565b505050565b5b81811015611120576111156000826110e9565b600181019050611102565b5050565b601f8211156111655761113681611005565b61113f8461101a565b8101602085101561114e578190505b61116261115a8561101a565b830182611101565b50505b505050565b600082821c905092915050565b60006111886000198460080261116a565b1980831691505092915050565b60006111a18383611177565b9150826002028217905092915050565b6111ba82610cbc565b67ffffffffffffffff8111156111d3576111d261095f565b5b6111dd8254610fd4565b6111e8828285611124565b600060209050601f83116001811461121b5760008415611209578287015190505b6112138582611195565b86555061127b565b601f19841661122986611005565b60005b828110156112515784890151825560018201915060208501945060208101905061122c565b8683101561126e578489015161126a601f891682611177565b8355505b6001600288020188555050505b505050505050565b7f4e487b7100000000000000000000000000000000000000000000000000000000600052603260045260246000fd5b7f4e487b7100000000000000000000000000000000000000000000000000000000600052601160045260246000fd5b60006112ec82610a8a565b91507fffffffffffffffffffffffffffffffffffffffffffffffffffffffffffffffff820361131e5761131d6112b2565b5b60018201905091905056fea264697066735822122022fed161a4e13217e0e6d87446ed50102d904848a13bb8cad812b53ca1f3806164736f6c63430008110033",
  "immutableReferences": {},
  "source": "// SPDX-License-Identifier: MIT\npragma solidity >=0.4.22 <0.9.0;\n\ncontract register {\n\n  address[] _usernames;\n  string[] _emails;\n  string[] _names;\n  string[] _mobiles;\n  string[] _depts;\n  uint[] _roles;\n  uint[] _passwords;\n\n  mapping(address=>bool) users;\n\n  function registeruser(address username,string memory email,string memory name,string memory mobile,string memory dept,uint role,uint password) public {\n    \n    require(!users[username]);\n\n    users[username]=true;\n    _usernames.push(username);\n    _emails.push(email);\n    _names.push(name);\n    _mobiles.push(mobile);\n    _depts.push(dept);\n    _roles.push(role);\n    _passwords.push(password);\n    \n  }\n\n  function viewusers() public view returns(address[] memory,string[] memory,string[] memory,string[] memory,string[] memory,uint[] memory,uint[] memory){\n\n    return(_usernames,_emails,_names,_mobiles,_depts,_roles,_passwords);\n  }\n\n  function loginuser(address username,uint password) public view returns(bool){\n\n    uint i=0;\n    require(users[username]);\n\n    for(i=0;i<_usernames.length;i++){\n\n      if(_usernames[i]==username && _passwords[i]==password){\n\n        return true;\n      }\n    }\n    return false;\n\n\n  }\n}\n",
  "sourcePath": "/Users/ms/Desktop/Government-Fund-Allocation-and-Tracking-System/contracts/register.sol",
  "compiler": {
    "name": "solc",
    "version": "0.8.17+commit.8df45f5f.Emscripten.clang"
  },
  "schemaVersion": "3.4.8",
  "updatedAt": "2023-01-25T08:14:20.822Z",
  "networkType": "ethereum",
  "devdoc": {
    "kind": "dev",
    "methods": {},
    "version": 1
  },
  "userdoc": {
    "kind": "user",
    "methods": {},
    "version": 1
  }
}